:020000040000FA
:100000000C9462000C948A000C948A000C948A0070
:100010000C948A000C948A000C948A000C948F042F
:100020000C948A000C948A000C948A000C948A0028
:100030000C948A000C948A000C948A000C948A0018
:100040000C94ED030C948A000C945D040C9437041A
:100050000C948A000C948A000C948A000C948A00F8
:100060000C948A000C948A000000000023002600F3
:10007000290000000000240027002A0000000000E2
:10008000250028002B0004040404040404040202D4
:100090000202020203030303030301020408102007
:1000A0004080010204081020010204081020000012
:1000B0000008000201000003040700000000000027
:1000C00000004F0511241FBECFEFD8E0DEBFCDBF2B
:1000D00011E0A0E0B1E0E4E4FCE102C005900D9283
:1000E000A231B107D9F722E0A2E1B1E001C01D922F
:1000F000AA39B207E1F710E0C2E6D0E004C02197C8
:10010000FE010E940B0EC136D107C9F70E9494056B
:100110000C94200E0C940000833081F028F4813080
:1001200099F08230A9F008958730A9F08830C9F09D
:100130008430B1F4809180008F7D03C08091800075
:100140008F7780938000089584B58F7784BD08955C
:1001500084B58F7DFBCF8091B0008F778093B00006
:1001600008958091B0008F7DF9CF1F93CF93DF93D7
:10017000282F30E0F901E255FF4F8491F901E6564E
:10018000FF4FD491F901EA57FF4FC491CC23A9F056
:10019000162F81110E948C00EC2FF0E0EE0FFF1F54
:1001A000E458FF4FA591B4918FB7F894EC911111D9
:1001B00008C0D095DE23DC938FBFDF91CF911F91D4
:1001C0000895DE2BF8CFCF93DF9390E0FC01E65645
:1001D000FF4F24918A579F4FFC0184918823D1F0CF
:1001E00090E0880F991FFC01EE58FF4FA591B49144
:1001F000FC01E458FF4FC591D49161110EC09FB727
:10020000F8948C91E22FE0958E238C932881E22341
:10021000E8839FBFDF91CF9108958FB7F894EC9159
:10022000E22BEC938FBFF6CF3FB7F8948091150186
:1002300090911601A0911701B091180126B5A89BC5
:1002400005C02F3F19F00196A11DB11D3FBFBA2F68
:10025000A92F982F8827BC01CD01620F711D811D28
:10026000911D42E0660F771F881F991F4A95D1F7AD
:1002700008958F929F92AF92BF92CF92DF92EF92AA
:10028000FF920E9414014B015C0180EDC82E87E0B3
:10029000D82EE12CF12C0E941401681979098A09E1
:1002A0009B09683E734081059105A8F321E0C21ABD
:1002B000D108E108F10888EE880E83E0981EA11CA1
:1002C000B11CC114D104E104F10429F7FF90EF90AF
:1002D000DF90CF90BF90AF909F908F900895CF9276
:1002E000DF92EF92FF92CF93DF93EC01072E000C89
:1002F000880B990B0E949D0C6B017C0120E030E083
:1003000040E45FE30E944D0D20E030E048E452E419
:100310000E94F30B0E94650CC617D707D4F020E0AB
:1003200030E040EA5FE3C701B6010E944D0D20E0D6
:1003300030E048E452E40E94F30B20E030E040E873
:100340005FE30E94820B0E94650C21E06C177D0721
:100350000CF420E0822F90E0DF91CF91FF90EF909E
:10036000DF90CF9008958F929F92AF92BF92CF92DD
:10037000DF92EF92FF920F931F93CF93DF93FC01D5
:1003800020813181E0912501F091260101E010E00A
:100390002E173F070CF043C0D901AA0FBB1FE091F5
:1003A0002301F0912401EA0FFB1FA080B180890195
:1003B000009510950170112720FD23C02CE93FEF17
:1003C000EA016B017C014901840E951EB401C5014F
:1003D0000E946F01892BC1F48C0E9D1EB401C501D2
:1003E0000E946F01892B49F5BE01680D791DC50179
:1003F0000E946F0123E030E0892B41F40FEF1FEFE3
:100400000EC024E630E0DCCF21E030E0F601808150
:1004100091810196821793079CF491838083C80190
:10042000DF91CF911F910F91FF90EF90DF90CF90D0
:10043000BF90AF909F908F90089522E030E0E6CF7C
:1004400011821082F701808191810196E6CFAF92EF
:10045000BF92CF92DF92EF92FF920F931F93CF93B1
:10046000DF936C017B018B01040F151FEB015E0113
:10047000AE18BF08C017D10759F06991D601ED91A8
:10048000FC910190F081E02DC6010995892B79F747
:10049000C501DF91CF911F910F91FF90EF90DF90F9
:1004A000CF90BF90AF900895FC01538D448D252FC0
:1004B00030E0842F90E0821B930B541710F0CF96FE
:1004C000089501970895FC01918D828D981761F030
:1004D000A28DAE0FBF2FB11D5D968C91928D9F5F47
:1004E0009F73928F90E008958FEF9FEF0895FC0126
:1004F000918D828D981731F0828DE80FF11D858DD9
:1005000090E008958FEF9FEF0895FC01918D228D6B
:10051000892F90E0805C9F4F821B91098F739927F0
:10052000089587E291E00E94850221E0892B09F479
:1005300020E0822F089580E090E0892B29F00E942E
:10054000910281110C9400000895FC01A48DA80F64
:10055000B92FB11DA35ABF4F2C91848D90E0019605
:100560008F739927848FA689B7892C93A089B18925
:100570008C91837080648C93938D848D981306C0C6
:100580000288F389E02D80818F7D80830895EF922A
:10059000FF920F931F93CF93DF93EC0181E0888F3D
:1005A0009B8D8C8D98131AC0E889F989808185FF0D
:1005B00015C09FB7F894EE89FF896083E889F989AF
:1005C00080818370806480839FBF81E090E0DF91B1
:1005D000CF911F910F91FF90EF900895F62E0B8D04
:1005E00010E00F5F1F4F0F731127E02E8C8D8E11BF
:1005F0000CC00FB607FCFACFE889F989808185FF26
:10060000F5CFCE010E94A502F1CFEB8DEC0FFD2FAF
:10061000F11DE35AFF4FF0829FB7F8940B8FEA89E0
:10062000FB8980818062CFCFCF93DF93EC01888DEF
:100630008823B9F0AA89BB89E889F9898C9185FD5D
:1006400003C0808186FD0DC00FB607FCF7CF8C91EB
:1006500085FFF2CF808185FFEDCFCE010E94A502FC
:10066000E9CFDF91CF91089560E08BE00E94B50063
:1006700061E08AE00E94B50060E089E00E94B50078
:1006800061E088E00C94B50060E08BE00E94B5006A
:1006900061E08AE00E94B50061E089E00E94B50057
:1006A00060E088E00C94B50060E08BE00E94B5004B
:1006B00060E08AE00E94B50061E089E00E94B50038
:1006C00060E088E00C94B50061E08BE00E94B5002A
:1006D00060E08AE00E94B50060E089E00E94B50019
:1006E00061E088E00C94B50061E08BE00E94B50009
:1006F00060E08AE00E94B50060E089E00E94B500F9
:1007000060E088E00C94B50060E08BE00E94B500EA
:1007100060E08AE00E94B50060E089E00E94B500D8
:1007200060E088E00C94B50061E08BE00E94E3009B
:10073000E9EBF0E0E491E33091F148F4E130C9F005
:10074000E23039F160E08BE00E94B50016C0E7307E
:1007500091F1E830C9F1E430A9F78091800080621E
:100760008093800081E090E090938B0080938A00DA
:1007700004C084B5806884BDE7BD60E08AE00E9463
:10078000B50061E089E00E94B50060E088E00C946B
:10079000B50084B5806284BD81E088BDEECF8091D4
:1007A000800080688093800081E090E090938900D1
:1007B00080938800E2CF8091B00080688093B00081
:1007C00081E08093B300D9CF8091B00080628093A4
:1007D000B00081E08093B400D0CF1F920F920FB68B
:1007E0000F9211242F933F938F939F93AF93BF93B7
:1007F0008091C4019091C501A091C601B091C7013B
:100800003091140123E0230F2D3758F50196A11DD7
:10081000B11D209314018093C4019093C501A0934E
:10082000C601B093C7018091150190911601A09166
:100830001701B09118010196A11DB11D80931501FA
:1008400090931601A0931701B0931801BF91AF9137
:100850009F918F913F912F910F900FBE0F901F90FE
:10086000189526E8230F0296A11DB11DD2CF1F9225
:100870000F920FB60F9211242F933F934F935F93D4
:100880006F937F938F939F93AF93BF93EF93FF9358
:1008900087E291E00E94A502FF91EF91BF91AF9195
:1008A0009F918F917F916F915F914F913F912F9188
:1008B0000F900FBE0F901F9018951F920F920FB6BA
:1008C0000F9211242F938F939F93EF93FF93E091B7
:1008D0003701F09138018081E0913D01F0913E01B6
:1008E00082FD1BC09081809140018F5F8F732091AA
:1008F0004101821741F0E0914001F0E0E95DFE4FD7
:10090000958F80934001FF91EF919F918F912F914F
:100910000F900FBE0F901F9018958081F4CF1F92FB
:100920000F920FB60F9211242F933F934F935F9323
:100930006F937F938F939F93AF93BF93CF93DF93E7
:10094000EF93FF932091C80130E0F901E255FF4F8A
:100950008491F901E656FF4FD491F901EA57FF4F10
:10096000C491CC2379F081110E948C00EC2FF0E02F
:10097000EE0FFF1FE859FF4FA591B491EC91ED23C5
:1009800081E009F480E02091CB013091CC012F5F10
:100990003F4F3093CC012093CB0190919502943638
:1009A00018F095E09093C9019091C901933009F432
:1009B0004CC0E0F4923011F19091CA01992319F0E2
:1009C00081116BC02D9AFF91EF91DF91CF91BF9173
:1009D000AF919F918F917F916F915F914F913F91D7
:1009E0002F910F900FBE0F901F901895943009F41F
:1009F00048C0953009F78111DFCF09C08111DCCFE4
:100A00002091CB013091CC012436310528F410928D
:100A1000CC011092CB01D0CF10929502E0919502BB
:100A200091E09E0F90939502F0E02091CB013091E0
:100A3000CC01EE0FFF1FE853FE4F36832583109243
:100A4000CC011092CB0193E019C0813009F0B4CFF2
:100A5000E091950291E09E0F90939502F0E0209135
:100A6000CB013091CC01EE0FFF1FE853FE4F3683D0
:100A700025831092CC011092CB0194E09093C90190
:100A80009BCF882359F22091CB013091CC012536A0
:100A9000310508F491CF95E0F1CF2D9894CFE7E29E
:100AA000F1E01382128288EE93E0A0E0B0E084834C
:100AB0009583A683B78384E091E09183808385EC5E
:100AC00090E09587848784EC90E09787868780EC18
:100AD00090E0918B808B81EC90E0938B828B82EC09
:100AE00090E0958B848B86EC90E0978B868B118EB3
:100AF000128E138E148EE8ECF1E082E18083128274
:100B00002FB7F8948091C4019091C501A091C601BE
:100B1000B091C7012FBF8093960290939702A09344
:100B20009802B09399020895CF93DF93CDB7DEB7C3
:100B30002C970FB6F894DEBF0FBECDBF789484B566
:100B4000826084BD84B5816084BD85B5826085BDC9
:100B500085B5816085BD80916E00816080936E0057
:100B60001092810080918100826080938100809149
:100B700081008160809381008091800081608093FA
:100B800080008091B10084608093B1008091B000BA
:100B900081608093B00080917A00846080937A00B5
:100BA00080917A00826080937A0080917A008160DF
:100BB00080937A0080917A00806880937A00109206
:100BC000C10061E089E00E94E30061E088E00E94EA
:100BD000E30061E08BE00E94E30061E08AE00E94B4
:100BE000E30061E08DE00E94E300E0913701F091C5
:100BF000380182E08083E0913301F091340110826A
:100C0000E0913501F09136019FEC908310923F0105
:100C1000E0913B01F0913C0196E09083E091390135
:100C2000F0913A01908190619083E0913901F091C7
:100C30003A01908198609083E0913901F0913A01F6
:100C4000908190689083E0913901F0913A01908110
:100C50009F7D9083F8948093B0008093B10094E6D8
:100C60009093B3001092B2008093700078948093B8
:100C7000C901109295028091C80160E00E94E300D2
:100C80000E9494030E9439010E9484030E9474030D
:100C90000E9439010E9484030E9454030E9439017A
:100CA0000E9484030E9444030E9439010E9484032D
:100CB0000E9464030E9439010E9484030E9434034D
:100CC0000E9439010E94840322242394312C44245D
:100CD0004A94542C32018DEC91E09093240180933E
:100CE00023018091950290E0909326018093250145
:100CF0008091C901853009F0E5C08091CF019091C4
:100D0000D001885891098D35910508F014C1809162
:100D10009502843009F0E3C08091D1019091D20115
:100D20008097479708F0DBC08091D3019091D40160
:100D30000997099708F0D3C010922201109221015F
:100D400040921D0150921E0160921F01709220017D
:100D500030921A01209219012FB7F8948091C401A2
:100D60009091C501A091C601B091C7012FBF4091DC
:100D70009602509197026091980270919902841B9B
:100D8000950BA60BB70B8B3F9105A105B105C8F0DC
:100D900061E08091120190911301892B09F060E0CC
:100DA000862F90E090931301809312018DE00E94B2
:100DB000B5008091190190911A01019611F40E94D9
:100DC000840380911D0190911E01A0911F01B0919B
:100DD00020018D399246AF4FB10511F40E94940362
:100DE00080911D0190911E01A0911F01B0912001E1
:100DF0008735984AAF4FB10511F40E9434038091B2
:100E00001D0190911E01A0911F01B09120018D3D07
:100E10009242AF4FB10511F40E94740380911D01FD
:100E200090911E01A0911F01B09120018D33924C31
:100E3000AF4FB10511F40E94540380911D019091B0
:100E40001E01A0911F01B09120018D3F9240AF4F34
:100E5000B10511F40E94840380911D0190911E013F
:100E6000A0911F01B09120018F31904EAF4FB1057D
:100E700011F40E94640380911D0190911E01A091C4
:100E80001F01B09120018F369049AF4FB10511F489
:100E90000E9444032FB7F8948091C4019091C5013A
:100EA000A091C601B091C7012FBF80939602909385
:100EB0009702A0939802B093990282E08093C901AF
:100EC0001092950280E090E0892B09F404CF0E94F3
:100ED0009102882309F4FFCE0E940000FCCE80918D
:100EE0009502843440F18091D1019091D2018254D5
:100EF00091098E9700F590E080E040E050E0BA0163
:100F0000FC01ED52FE4F20813181295031092930F9
:100F1000310588F4FC01EB52FE4F208131812651CE
:100F200031092131310530F12081318126503109DB
:100F300027303105C0F1809195028A3108F468C0EC
:100F40008091CD019091CE01843F914088F510921F
:100F500022011092210140921D0150921E016092C7
:100F60001F017092200189E090E090931A01809314
:100F70001901F2CE440F551F661F771F416004967A
:100F80008038910509F0BCCFA0E2B0E0B093220117
:100F9000A093210140931D0150931E0160931F01F6
:100FA00070932001D5CE440F551F661F771FE7CFE2
:100FB0008091CF019091D00185974B9748F5E8EC4F
:100FC000F1E082E090E040E050E0BA01A0919502AB
:100FD0009C012F5F3F4FA217130609F00CF4F2C0DB
:100FE00021853285275031092730310508F0EAC0C4
:100FF00023853485235131092F30310508F4D5C0BC
:10100000238534852A5031092930310508F4D5C0AB
:10101000809195028A3108F43FC08091CD01909172
:10102000CE018032934008F492CF8091CF0190910D
:10103000D001C697869780F58091D1019091D20119
:10104000C697869748F5E8ECF1E083E090E040E051
:1010500050E0BA01A09195029C012F5F3F4FA2176B
:10106000130609F00CF4D8C0238534852C503109BF
:101070002B30310508F0D0C0258536852552310941
:101080002B31310508F4BBC0258536852C5031093C
:101090002A30310508F4BBC080919502823238F1C4
:1010A0008091CF019091D0010697079700F5E8EC69
:1010B000F1E082E090E040E050E0BA01DC011196FE
:1010C000209195022A171B0609F00CF4D1C0218546
:1010D00032852E5131092731310508F4B4C02185FC
:1010E00032852C5031092B30310508F4BBC080917A
:1010F00095028D3008F4EDC03C822B821A82198251
:1011000049E753E0BE016F5F7F4FCE0103960E9417
:10111000B301892B09F0DDC049E753E0BE016F5FE1
:101120007F4FCE0103960E94B301019709F0D1C011
:1011300049E753E0BE016F5F7F4FCE0103960E94E7
:10114000B3018C01892B09F0C4C0812C912C54016E
:10115000209195028B819C812817190609F00CF4C7
:10116000A9C049E753E0BE016F5F7F4FCE010396F0
:101170000E94B3017C0149E753E0BE016F5F7F4FDE
:10118000CE0103960E94B30121E0E216F10409F0BA
:1011900088C0892B09F09DC0880C991CAA1CBB1C17
:1011A000689480F80F5F1F4FD3CF440F551F661F01
:1011B000771F41600296349609CF440F551F661F72
:1011C000771FF8CF0197959587959093220180938B
:1011D00021010C972CF4109222011092210118CFBA
:1011E00040931D0150931E0160931F0170932001D5
:1011F000E2E0F0E0F0931A01E0931901ADCD440F65
:10120000551F661F771F41600296349623CF440F07
:10121000551F661F771FF8CF019795958795909377
:101220002201809321010C972CF41092220110923C
:10123000210132CF40931D0150931E0160931F0185
:101240007093200190CE440F551F661F771F416099
:10125000238534853496235031092530310538F4FF
:1012600002962CCF440F551F661F771FF1CFCD017B
:10127000019795958795909322018093210140973E
:101280002CF4109222011092210131CF40931D01C4
:1012900050931E0160931F01709320018AE090E03B
:1012A00064CEEF28B1F40197A1F4880C991CAA1C14
:1012B000BB1C78CF109322010093210180921D0165
:1012C00090921E01A0921F01B092200183E090E055
:1012D0004CCE8091250190912601181619060CF02C
:1012E00082C0E0912301F09124013C822B82828113
:1012F000938189974E9708F076C082E090E09C83B6
:101300008B83848195810B970A9708F06CC083E0EA
:1013100090E09C838B831A8219824CEB51E0BE01D2
:101320006F5F7F4FCE0103960E94B3018C01892B22
:1013300009F059C04CEB51E0BE016F5F7F4FCE0109
:1013400003960E94B301019709F04DC0812C912CA6
:10135000540120912501309126018B819C818217B7
:1013600093070CF0AEC04CEB51E0BE016F5F7F4FB6
:10137000CE0103960E94B3017C010330110539F1BF
:101380004CEB51E0BE016F5F7F4FCE0103960E9490
:10139000B3016C010330110561F44CEB51E0BE0167
:1013A0006F5F7F4FCE0103960E94B301C816D90626
:1013B000D1F4E114F10409F477C0EA94EF2899F428
:1013C000CD2889F4880C991CAA1CBB1C77C04CEB57
:1013D00051E0BE016F5F7F4FCE0103960E94B301C3
:1013E000E816F90669F2E0912301F0912401828167
:1013F0009381C697869778F5848195814B97459719
:1014000050F5DF0116967F0126ECE20EF11C20E07C
:1014100030E040E050E060E070E080E090E00D916E
:101420001C9111970950110908301105A0F412966A
:101430000D911C911397015111090D30110508F4FC
:101440004FC012960D911C9113970450110905304D
:10145000110508F46AC080919502823209F069C0D2
:10146000828193810A97099708F063C0A091950241
:10147000B0E0A150B048AA0FBB1FAE0FBF1F8D91A7
:101480009C910A97099708F054C01092220110927B
:10149000210140921D0150921E0160921F01709225
:1014A000200188E090E061CDCA94CD2809F09BCF5F
:1014B000880C991CAA1CBB1C689480F80F5F1F4FF6
:1014C00048CF109322010093210180921D01909238
:1014D0001E01A0921F01B092200184E090E045CD52
:1014E00001E00E94D50D21601496EA16FB0609F072
:1014F00096CF20931D0130931E0140931F015093FE
:10150000200100E20E94F00D20931B0130931C018A
:1015100087E090E090931A018093190180E390E0B6
:10152000909322018093210117CC01E00E94D50DF8
:10153000DBCF82819381895791098335910568F5C5
:1015400080919502813248F184819581CA9789976B
:1015500020F59F012A5F3F4FC12CD12C760143E03B
:1015600050E0D9016D917C9111976A5071096930F1
:10157000710598F412966D917C91139766517109DB
:101580006131710508F48BC012966D917C916650A3
:1015900071096730710508F4AFC080912501909101
:1015A000260198878F8306970CF487CCDF0112966B
:1015B000BE83AD8385ECC82E8DE9D82E8CE1E82E54
:1015C00081E8F82E03E010E0ED81FE8164817581F1
:1015D000A080B18090E080E00E949B0C69877A87B0
:1015E0008B879C87B50190E080E00E949B0C4B01AB
:1015F0005C012DEC3CEC4CE45FE30E944D0D9B0143
:10160000AC0169857A858B859C850E94EE0BF0E0A4
:10161000E0E087FD16C02DEC3CEC4CE45FE369850F
:101620007A858B859C850E944D0D9B01AC01C5017F
:10163000B4010E94EE0BE2E0F0E087FD02C0E1E0C1
:10164000F0E0A701960163E971E080E091E00E947B
:10165000BA0D6F01FF0FEE08FF08C626D726E82651
:10166000F9260F5F1F4F8D819E8102969E838D8389
:10167000AF81B8850A171B0709F0A6CFC0921D01DC
:10168000D0921E01E0921F01F0922001E0E2F0E012
:10169000F0932201E09321018FEF9FEF66CCD701F9
:1016A000C601880F991FAA1FBB1F6C017D0168949A
:1016B000C0F84E5F5F4F2C5F3F4F4332510509F03A
:1016C00050CF9F012A5B3F4FD9012D913C912A5069
:1016D00031092930310508F060CF20E130E0309346
:1016E000220120932101C0921D01D0921E01E0929F
:1016F0001F01F0922001D5CECC0CDD1CEE1CFF1C8E
:10170000D8CF5058BB27AA270E94990B0C94130DD1
:101710000E94050D38F00E940C0D20F039F49F3F17
:1017200019F426F40C94020D0EF4E095E7FB0C94EA
:10173000FC0CE92F0E94240D58F3BA1762077307B7
:101740008407950720F079F4A6F50C94460D0EF465
:10175000E0950B2EBA2FA02D0B01B90190010C01C1
:10176000CA01A0011124FF27591B99F0593F50F4D9
:10177000503E68F11A16F040A22F232F342F442731
:10178000585FF3CF469537952795A795F040539529
:10179000C9F77EF41F16BA0B620B730B840BBAF0F9
:1017A0009150A1F0FF0FBB1F661F771F881FC2F764
:1017B0000EC0BA0F621F731F841F48F48795779578
:1017C0006795B795F7959E3F08F0B0CF9395880F32
:1017D00008F09927EE0F9795879508950E94D80CE9
:1017E00008F481E008950E94070C0C94130D0E94E8
:1017F0000C0D58F00E94050D40F029F45F3F29F0D0
:101800000C94FC0C51110C94470D0C94020D0E9489
:10181000240D68F39923B1F3552391F3951B550BD0
:10182000BB27AA2762177307840738F09F5F5F4FB3
:10183000220F331F441FAA1FA9F335D00E2E3AF0F2
:10184000E0E832D091505040E695001CCAF72BD00A
:10185000FE2F29D0660F771F881FBB1F261737075B
:101860004807AB07B0E809F0BB0B802DBF01FF278D
:1018700093585F4F3AF09E3F510578F00C94FC0C62
:101880000C94470D5F3FE4F3983ED4F3869577952B
:101890006795B795F7959F5FC9F7880F911D969546
:1018A000879597F90895E1E0660F771F881FBB1FA2
:1018B000621773078407BA0720F0621B730B840B4F
:1018C000BA0BEE1F88F7E09508950E946C0C68949F
:1018D000B1110C94470D08950E942C0D88F09F576C
:1018E00098F0B92F9927B751B0F0E1F0660F771F44
:1018F000881F991F1AF0BA95C9F714C0B13091F03A
:101900000E94460DB1E008950C94460D672F782F84
:101910008827B85F39F0B93FCCF3869577956795FE
:10192000B395D9F73EF490958095709561957F4F6A
:101930008F4F9F4F0895E89409C097FB3EF4909510
:101940008095709561957F4F8F4F9F4F9923A9F098
:10195000F92F96E9BB279395F69587957795679527
:10196000B795F111F8CFFAF4BB0F11F460FF1BC06B
:101970006F5F7F4F8F4F9F4F16C0882311F096E9FE
:1019800011C0772321F09EE8872F762F05C06623AC
:1019900071F096E8862F70E060E02AF09A95660F65
:1019A000771F881FDAF7880F9695879597F908951E
:1019B000990F0008550FAA0BE0E8FEEF1616170660
:1019C000E807F907C0F012161306E407F50798F0C8
:1019D000621B730B840B950B39F40A2661F0232BE1
:1019E000242B252B21F408950A2609F4A140A6955D
:1019F0008FEF811D811D089597F99F6780E870E042
:101A000060E008959FEF80EC089500240A94161674
:101A1000170618060906089500240A9412161306DC
:101A2000140605060895092E0394000C11F488236A
:101A300052F0BB0F40F4BF2B11F460FF04C06F5F86
:101A40007F4F8F4F9F4F089557FD9058440F551F5C
:101A500059F05F3F71F04795880F97FB991F61F030
:101A60009F3F79F087950895121613061406551FA7
:101A7000F2CF4695F1DF08C0161617061806991F13
:101A8000F1CF86957105610508940895E894BB2708
:101A900066277727CB0197F908950E94600D0C9473
:101AA000130D0E94050D38F00E940C0D20F09523B7
:101AB00011F00C94FC0C0C94020D11240C94470DA5
:101AC0000E94240D70F3959FC1F3950F50E0551FB0
:101AD000629FF001729FBB27F00DB11D639FAA2783
:101AE000F00DB11DAA1F649F6627B00DA11D661FD2
:101AF000829F2227B00DA11D621F739FB00DA11DF3
:101B0000621F839FA00D611D221F749F3327A00DAC
:101B1000611D231F849F600D211D822F762F6A2F48
:101B200011249F5750409AF0F1F088234AF0EE0FAD
:101B3000FF1FBB1F661F771F881F91505040A9F7DA
:101B40009E3F510580F00C94FC0C0C94470D5F3FB8
:101B5000E4F3983ED4F3869577956795B795F79516
:101B6000E7959F5FC1F7FE2B880F911D969587958E
:101B700097F90895DB018F939F930E94CA0DBF913F
:101B8000AF91A29F800D911DA39F900DB29F900DCC
:101B9000112408950E94110EA59F900DB49F900DE1
:101BA000A49F800D911D11240895002E083090F0FF
:101BB000982F872F762F652F542F432F322F2227D0
:101BC0000850F4CF220F331F441F551F661F771F85
:101BD000881F991F0A95B2F7002D089597FD10945C
:101BE000002E083098F00850232F342F452F562F01
:101BF000672F782F892F912DF4CF1594979587957E
:101C00007795679557954795379527950A95AAF73C
:101C10001124002D0895EE0FFF1F0590F491E02D83
:101C20000994A29FB001B39FC001A39F700D811DB5
:101C30001124911DB29F700D811D1124911D0895D5
:101C4000F894FFCF00000000C702270254021403DB
:061C500085026302770229
:107E0000112484B714BE81FFF0D085E080938100F7
:107E100082E08093C00088E18093C10086E0809377
:107E2000C20080E18093C4008EE0C9D0259A86E02C
:107E300020E33CEF91E0309385002093840096BBD3
:107E4000B09BFECF1D9AA8958150A9F7CC24DD24C4
:107E500088248394B5E0AB2EA1E19A2EF3E0BF2EE7
:107E6000A2D0813461F49FD0082FAFD0023811F036
:107E7000013811F484E001C083E08DD089C08234E0
:107E800011F484E103C0853419F485E0A6D080C0E4
:107E9000853579F488D0E82EFF2485D0082F10E0AE
:107EA000102F00270E291F29000F111F8ED06801E7
:107EB0006FC0863521F484E090D080E0DECF843638
:107EC00009F040C070D06FD0082F6DD080E0C81688
:107ED00080E7D80618F4F601B7BEE895C0E0D1E017
:107EE00062D089930C17E1F7F0E0CF16F0E7DF06D8
:107EF00018F0F601B7BEE89568D007B600FCFDCFD4
:107F0000A601A0E0B1E02C9130E011968C91119780
:107F100090E0982F8827822B932B1296FA010C0160
:107F200087BEE89511244E5F5F4FF1E0A038BF0790
:107F300051F7F601A7BEE89507B600FCFDCF97BE46
:107F4000E89526C08437B1F42ED02DD0F82E2BD052
:107F50003CD0F601EF2C8F010F5F1F4F84911BD097
:107F6000EA94F801C1F70894C11CD11CFA94CF0C13
:107F7000D11C0EC0853739F428D08EE10CD085E9AC
:107F80000AD08FE07ACF813511F488E018D01DD067
:107F900080E101D065CF982F8091C00085FFFCCF94
:107FA0009093C60008958091C00087FFFCCF809118
:107FB000C00084FD01C0A8958091C6000895E0E648
:107FC000F0E098E1908380830895EDDF803219F02E
:107FD00088E0F5DFFFCF84E1DECF1F93182FE3DFCA
:107FE0001150E9F7F2DF1F91089580E0E8DFEE27F6
:047FF000FF270994CA
:027FFE00040479
:00000001FF
